{
  "contractName": "BobsCoffeeshop",
  "abi": [
    {
      "inputs": [],
      "payable": true,
      "stateMutability": "payable",
      "type": "constructor"
    },
    {
      "constant": true,
      "inputs": [
        {
          "internalType": "uint256",
          "name": "",
          "type": "uint256"
        }
      ],
      "name": "coffeesSold",
      "outputs": [
        {
          "internalType": "uint256",
          "name": "",
          "type": "uint256"
        }
      ],
      "payable": false,
      "stateMutability": "view",
      "type": "function"
    },
    {
      "constant": true,
      "inputs": [
        {
          "internalType": "address",
          "name": "",
          "type": "address"
        }
      ],
      "name": "customers",
      "outputs": [
        {
          "internalType": "uint256",
          "name": "",
          "type": "uint256"
        }
      ],
      "payable": false,
      "stateMutability": "view",
      "type": "function"
    },
    {
      "constant": true,
      "inputs": [],
      "name": "owner",
      "outputs": [
        {
          "internalType": "address payable",
          "name": "",
          "type": "address"
        }
      ],
      "payable": false,
      "stateMutability": "view",
      "type": "function"
    },
    {
      "constant": false,
      "inputs": [
        {
          "internalType": "uint256",
          "name": "coffeeId",
          "type": "uint256"
        },
        {
          "internalType": "uint256",
          "name": "quantity",
          "type": "uint256"
        }
      ],
      "name": "buyCoffee",
      "outputs": [],
      "payable": true,
      "stateMutability": "payable",
      "type": "function"
    },
    {
      "constant": true,
      "inputs": [],
      "name": "getCoffeesSold",
      "outputs": [
        {
          "internalType": "uint256[3]",
          "name": "",
          "type": "uint256[3]"
        }
      ],
      "payable": false,
      "stateMutability": "view",
      "type": "function"
    },
    {
      "constant": true,
      "inputs": [],
      "name": "getCoffeesPrice",
      "outputs": [
        {
          "internalType": "uint256[3]",
          "name": "",
          "type": "uint256[3]"
        }
      ],
      "payable": false,
      "stateMutability": "view",
      "type": "function"
    }
  ],
  "bytecode": "0x6080604052336000806101000a81548173ffffffffffffffffffffffffffffffffffffffff021916908373ffffffffffffffffffffffffffffffffffffffff1602179055506040518060600160405280670de0b6b3a764000067ffffffffffffffff168152602001671bc16d674ec8000067ffffffffffffffff1681526020016729a2241af62c000067ffffffffffffffff1681525060049060036100a59291906100ab565b5061011c565b82600381019282156100e6579160200282015b828111156100e5578251829067ffffffffffffffff169055916020019190600101906100be565b5b5090506100f391906100f7565b5090565b61011991905b808211156101155760008160009055506001016100fd565b5090565b90565b6105c28061012b6000396000f3fe6080604052600436106100555760003560e01c806328ae954b1461005a578063336989ae146100ad57806340366ee4146101125780638da5cb5b1461014a578063aba65348146101a1578063b97d9a4f146101f0575b600080fd5b34801561006657600080fd5b5061006f610243565b6040518082600360200280838360005b8381101561009a57808201518184015260208101905061007f565b5050505090500191505060405180910390f35b3480156100b957600080fd5b506100fc600480360360208110156100d057600080fd5b81019080803573ffffffffffffffffffffffffffffffffffffffff16906020019092919050505061028e565b6040518082815260200191505060405180910390f35b6101486004803603604081101561012857600080fd5b8101908080359060200190929190803590602001909291905050506102a6565b005b34801561015657600080fd5b5061015f6104e3565b604051808273ffffffffffffffffffffffffffffffffffffffff1673ffffffffffffffffffffffffffffffffffffffff16815260200191505060405180910390f35b3480156101ad57600080fd5b506101da600480360360208110156101c457600080fd5b8101908080359060200190929190505050610508565b6040518082815260200191505060405180910390f35b3480156101fc57600080fd5b50610205610520565b6040518082600360200280838360005b83811015610230578082015181840152602081019050610215565b5050505090500191505060405180910390f35b61024b61056b565b6001600380602002604051908101604052809291908260038015610284576020028201915b815481526020019060010190808311610270575b5050505050905090565b60076020528060005260406000206000915090505481565b6000811161031c576040517f08c379a000000000000000000000000000000000000000000000000000000000815260040180806020018281038252601f8152602001807f6e65656420746f20627579206174206c65617374206f6e6520636f666665650081525060200191505060405180910390fd5b60038210610392576040517f08c379a00000000000000000000000000000000000000000000000000000000081526004018080602001828103825260198152602001807f776520646f6e27742073656c6c207468697320636f666665650000000000000081525060200191505060405180910390fd5b600081600484600381106103a257fe5b01540290508034101561041d576040517f08c379a000000000000000000000000000000000000000000000000000000000815260040180806020018281038252601d8152602001807f70616964206c657373202d20796f7520676574206e6f20636f6666656500000081525060200191505060405180910390fd5b8034111561047557600081340390503373ffffffffffffffffffffffffffffffffffffffff166108fc829081150290604051600060405180830381858888f19350505050158015610472573d6000803e3d6000fd5b50505b81600760003373ffffffffffffffffffffffffffffffffffffffff1673ffffffffffffffffffffffffffffffffffffffff1681526020019081526020016000206000828254019250508190555081600184600381106104d057fe5b0160008282540192505081905550505050565b6000809054906101000a900473ffffffffffffffffffffffffffffffffffffffff1681565b6001816003811061051557fe5b016000915090505481565b61052861056b565b6004600380602002604051908101604052809291908260038015610561576020028201915b81548152602001906001019080831161054d575b5050505050905090565b604051806060016040528060039060208202803883398082019150509050509056fea265627a7a723158201be891f703c30320e6383b7f93f4b8d373af483ac546a7a8380deb0278acf05164736f6c63430005100032",
  "source": "pragma solidity ^0.5.0;\r\n\r\ncontract BobsCoffeeshop{\r\n    address payable public owner;\r\n    uint[3] public coffeesSold;\r\n    uint[3] coffeePrice;\r\n    mapping (address => uint) public customers;\r\n    \r\n    constructor() public payable {\r\n        owner = msg.sender;\r\n        coffeePrice = [1 ether, 2 ether, 3 ether]; // IDs [0]: americano, [1]: latte, [2]: cappuccino\r\n    }\r\n    \r\n    function buyCoffee(uint coffeeId, uint quantity) public payable {\r\n        // quantity not zero\r\n        require(quantity > 0, \"need to buy at least one coffee\");\r\n        // unknown coffee (other than americano, latte and cappuccino)\r\n        require(coffeeId < 3, \"we don't sell this coffee\");\r\n        // calculate amount to pay\r\n        uint amountToPay = coffeePrice[coffeeId] * quantity;\r\n        // check underpayment\r\n        require(msg.value >= amountToPay, \"paid less - you get no coffee\");\r\n        // refund overpayment\r\n        if(msg.value > amountToPay){\r\n            uint change = msg.value - amountToPay;\r\n            msg.sender.transfer(change);\r\n        }\r\n        customers[msg.sender] += quantity; // customer gets the coffee\r\n        coffeesSold[coffeeId] += quantity; // keep track of sales\r\n    }\r\n\r\n    function getCoffeesSold() public view returns(uint[3] memory){\r\n        return coffeesSold;\r\n    }\r\n\r\n    function getCoffeesPrice() public view returns(uint[3] memory){\r\n        return coffeePrice;\r\n    }\r\n}",
  "sourcePath": "E:/workspace/dev/projects/bobscoffeeshop/contracts/BobsCoffeeshop.sol",
  "compiler": {
    "name": "solc",
    "version": "0.5.16+commit.9c3226ce.Emscripten.clang"
  },
  "schemaVersion": "3.0.21",
  "updatedAt": "2020-03-28T21:31:17.663Z",
  "networkType": "ethereum",
  "devdoc": {
    "methods": {}
  },
  "userdoc": {
    "methods": {}
  }
}